:100000000C942A000C9434000C9434000C943400AA
:100010000C9434000C9434000C9434000C94340090
:100020000C9434000C9434000C9434000C94340080
:100030000C9434000C9434000C9434000C94340070
:100040000C9434000C9434000C9434000C94340060
:100050000C94340011241FBECFE5D8E0DEBFCDBF25
:100060000E9458000C942F020C94000087B1806409
:1000700087B986B1846886B9089597B1907E892B37
:1000800087B986B1806486B9349BFECF83E08A95B8
:10009000F1F7000024B185B190E0982F8827820FF6
:1000A000911D089589E683BF87B3886087BB089553
:1000B0008AB38F7E8ABB0E94360086E090E00E9461
:1000C00089000E94520084E090E00E943D00BC0143
:1000D000990F880B990B0E94360129EB3CEF47ECF6
:1000E0005DE30E94C20120E030E040E05FE30E9457
:1000F00099000E9405016CBF8CB70E9492002FE30B
:100100008DE093E0215080409040E1F700C0000076
:10011000D8CF2AB128612AB920B5266820BD89B96F
:1001200090BD08955D9BFECF8CB95E9BFECF089578
:100130005058BB27AA270E94B0000C9488010E9447
:100140007A0138F00E94810120F039F49F3F19F4C0
:1001500026F40C9477010EF4E095E7FB0C94710102
:10016000E92F0E94990158F3BA17620773078407B1
:10017000950720F079F4A6F50C94BB010EF4E095F8
:100180000B2EBA2FA02D0B01B90190010C01CA0151
:10019000A0011124FF27591B99F0593F50F4503EFC
:1001A00068F11A16F040A22F232F342F4427585FEE
:1001B000F3CF469537952795A795F0405395C9F706
:1001C0007EF41F16BA0B620B730B840BBAF09150BE
:1001D000A1F0FF0FBB1F661F771F881FC2F70EC05D
:1001E000BA0F621F731F841F48F487957795679530
:1001F000B795F7959E3F08F0B0CF9395880F08F01C
:100200009927EE0F9795879508950E94A10188F090
:100210009F5798F0B92F9927B751B0F0E1F0660FCA
:10022000771F881F991F1AF0BA95C9F714C0B1300B
:1002300091F00E94BB01B1E008950C94BB01672FBF
:10024000782F8827B85F39F0B93FCCF3869577953A
:100250006795B395D9F73EF4909580957095619523
:100260007F4F8F4F9F4F0895E89409C097FB3EF44E
:1002700090958095709561957F4F8F4F9F4F9923F3
:10028000A9F0F92F96E9BB279395F6958795779571
:100290006795B795F111F8CFFAF4BB0F11F460FF31
:1002A0001BC06F5F7F4F8F4F9F4F16C0882311F089
:1002B00096E911C0772321F09EE8872F762F05C09D
:1002C000662371F096E8862F70E060E02AF09A9538
:1002D000660F771F881FDAF7880F9695879597F92D
:1002E000089597F99F6780E870E060E008959FEFB8
:1002F00080EC089500240A941616170618060906BD
:10030000089500240A94121613061406050608958B
:10031000092E0394000C11F4882352F0BB0F40F413
:10032000BF2B11F460FF04C06F5F7F4F8F4F9F4F53
:10033000089557FD9058440F551F59F05F3F71F0D5
:100340004795880F97FB991F61F09F3F79F087953C
:100350000895121613061406551FF2CF4695F1DFC5
:1003600008C0161617061806991FF1CF8695710555
:10037000610508940895E894BB2766277727CB0189
:1003800097F908950E94D5010C9488010E947A0182
:1003900038F00E94810120F0952311F00C94710136
:1003A0000C94770111240C94BC010E94990170F304
:1003B000959FC1F3950F50E0551F629FF001729F0A
:1003C000BB27F00DB11D639FAA27F00DB11DAA1F19
:1003D000649F6627B00DA11D661F829F2227B00D66
:1003E000A11D621F739FB00DA11D621F839FA00DF1
:1003F000611D221F749F3327A00D611D231F849F41
:10040000600D211D822F762F6A2F11249F57504097
:100410009AF0F1F088234AF0EE0FFF1FBB1F661F12
:10042000771F881F91505040A9F79E3F510580F0DB
:100430000C9471010C94BC015F3FE4F3983ED4F33B
:10044000869577956795B795F795E7959F5FC1F77F
:10045000FE2B880F911D9695879597F90895F8942E
:02046000FFCFCC
:00000001FF
