S012000050574D5F4472617765722E737265635A
S11300000C942A000C9447000C9447000C9447006D
S11300100C9447000C9447000C9447000C94470040
S11300200C9447000C9447000C9447000C94470030
S11300300C9447000C9447000C9447000C94470020
S11300400C9447000C9447000C9447000C94470010
S11300500C94470011241FBECFE5D8E0DEBFCDBF0E
S113006015E0A0E6B0E0ECEEF0E102C005900D92E0
S1130070AC3CB107D9F725E0ACECB5E001C01D926A
S1130080A03FB207E1F70E9479030C9474080C9422
S113009000006F927F928F929F92AF92BF92CF9205
S11300A0DF92EF92FF920F931F93CF93DF934B0155
S11300B05C01EA01390120E030E0A9010E9400045A
S11300C088233CF48DE28883B7FAB094B7F8B094EF
S11300D02196C501B4010E9405046B017C01DF92E5
S11300E06F9387EB95E09F938F937F926F92DF934B
S11300F0CF930E945A05FE01E80FF91F681A790A86
S11301008DB79EB708960FB6F8949EBF0FBE8DBFED
S113011010161106F4F592E0691671042CF0EF0143
S113012021968EE2808301C0EF01B601DD0C880BBD
S1130130990B0E943D049B01AC01C501B4010E94CE
S11301409303E12CF12C21C020E030E040E251E4A3
S11301500E94ED044B015C010E9405046E012FEF27
S1130160C21AD20A20E3260F2883072E000C880B1C
S1130170990B0E943D049B01AC01C501B4010E948E
S113018093032FEFE21AF20AE601E016F106E4F215
S113019001C0EF011882DF91CF911F910F91FF9061
S11301A0EF90DF90CF90BF90AF909F908F907F9013
S11301B06F9008950F931F93CF93DF9387EE9BEF78
S11301C0A9E7B0E48093CC059093CD05A093CE0528
S11301D0B093CF0503E010E02AE030E044EE55E0B0
S11301E0BC01CD010E94490020E040E06CE670E0D3
S11301F080E00E94B60224E140E064EE75E080E015
S11302000E94B60220E040E06AEB75E081E00E94C3
S1130210B6020E948F03C82F1F928F938EEB95E036
S11302209F938F9380ED95E09F938F930E948A050F
S113023020E042E061EC75E080E00E94B6022AE230
S113024042E060ED75E080E00E94B602DFEFDC0F73
S11302500F900F900F900F900F900F90D33640F4A3
S113026026E342E066E974E080E00E94B60211C031
S1130270CA3040F42FE242E069E974E080E00E9471
S1130280B60207C02AE242E060ED75E080E00E9419
S1130290B60220E042E060E670E081E00E94B6022F
S11302A06091EE057091EF0580E090E00E943B04C0
S11302B02FE632E143E85AE30E94ED0403E010E044
S11302C02AE030E04AED55E00E94490020E044E095
S11302D062E670E080E00E94B6022EE144E06AED3E
S11302E075E080E00E94B60220E044E069EC75E02D
S11302F081E00E94B60288ED8C0F853120F520E064
S113030045E06DE974E080E00E94200320E046E0CF
S113031067EA74E080E00E94200320E047E066EB97
S113032074E080E00E94200320E046E065EC74E085
S113033081E00E94200320E047E062ED74E081E068
S11303400E942003BCC0C11124C020E045E06DE937
S113035074E080E00E94200320E046E06FED74E04A
S113036080E00E94200320E047E06EEE74E080E02D
S11303700E94200320E047E06DEF74E081E00E94DA
S1130380200320E046E06FED74E081E00E9420034A
S113039096C0C43621F520E045E06DE974E080E0C4
S11303A00E94200320E046E06CE075E080E00E94BB
S11303B0200320E047E06BE175E080E00E94200329
S11303C020E046E06AE275E081E00E94200320E03C
S11303D047E067E375E081E00E94200370C0D732F4
S11303E020F520E045E06DE974E080E00E94200300
S11303F020E046E065E475E080E00E94200320E010
S113040047E064E575E080E00E94200320E046E0D8
S113041063E675E081E00E94200320E047E060E7A6
S113042075E081E00E9420034AC0CD53C73220F515
S113043020E045E06DE974E080E00E94200320E0C4
S113044046E06DE775E080E00E94200320E047E08D
S11304506CE875E080E00E94200320E046E06BE950
S113046075E081E00E94200320E047E069EA75E03E
S113047081E00E94200323C020E045E06DE974E0A0
S113048080E00E94200320E046E067EA74E080E018
S11304900E94200320E047E066EB74E080E00E94C5
S11304A0200320E046E065EC74E081E00E94200334
S11304B020E047E062ED74E081E00E942003DF91D8
S11304C0CF911F910F9108958BBB85B38E7F85BB10
S11304D085B38D7F85BB85B3846085BB85B38B7FF6
S11304E085BB08958BBB85B3816085BB85B38D7F48
S11304F085BB85B3846085BB85B38B7F85BB08953D
S1130500813069F028F0823089F08330B1F01CC06A
S113051085B38F7D85BB85B3806185BB089585B325
S11305208F7E85BB85B3806285BB089585B380616A
S113053085BB85B3806285BB089585B38F7E85BBFB
S113054085B38F7D85BB089585B3806185BB85B3F5
S1130550806285BB0895CF93C62F88540E9464029D
S113056080E48C0F0E946402CF910895EF92FF9271
S11305700F931F93CF93DF937B01C42FD22F0E943D
S113058080026D2F8C2F0E94AB021BC010E0005222
S11305901109C801880F991F080F191F000F111F97
S11305A0E8010A5F1F4F07C0FE01EA58FF4F808130
S11305B00E9472022196C017D107B4F38FEFE81A94
S11305C0F80AF70100810111E1CFDF91CF911F916A
S11305D00F91FF90EF9008958FEF84BB8ABB85B392
S11305E0877F85BB83EC99E00197F1F700C0000099
S11305F085B3886085BB89EF90E00197F1F700C06F
S1130600000082E00E94800289EF90E00197F1F7F8
S113061000C000008FE30E94640280EC0E94640228
S113062089EF90E00197F1F700C0000081E00E949B
S1130630800289EF90E00197F1F700C0000008956F
S1130640EF92FF920F931F93CF93DF938B01C42FED
S1130650D22F0E9480026D2F8C2F0E94AB021AC0F1
S1130660D0E0A097CE01880F991F880F991FC80F5B
S1130670D91F7E0185E0E80EF11C07C0FE01EA5493
S1130680FD4F80810E9472022196CE15DF05B4F3DE
S11306900F5F1F4FF801C081C111E2CFDF91CF91ED
S11306A01F910F91FF90EF90089582B3806482BBF5
S11306B01FBC80E288BF81E48EBD089508B605FEA4
S11306C0FDCF86B597B59093EF058093EE0580E254
S11306D088BF08B605FEFDCF86B597B52091EE0517
S11306E03091EF05821B930B9093EF058093EE05F9
S11306F008950E94EC020E94550386E090E00E9457
S113070086030E945E030E94DA00FBCF2AB12861AF
S11307102AB920B5266820BD89B990BD08955F9B8C
S1130720FECF8CB108955058BB27AA270E94AB0373
S11307300C94B3040E94A50438F00E94AC0420F089
S113074039F49F3F19F426F40C94A2040EF4E095B6
S1130750E7FB0C949C04E92F0E94C40458F3BA17D5
S1130760620773078407950720F079F4A6F50C94C3
S1130770E6040EF4E0950B2EBA2FA02D0B01B9015F
S113078090010C01CA01A0011124FF27591B99F003
S1130790593F50F4503E68F11A16F040A22F232F0F
S11307A0342F4427585FF3CF469537952795A7955F
S11307B0F0405395C9F77EF41F16BA0B620B730B06
S11307C0840BBAF09150A1F0FF0FBB1F661F771F77
S11307D0881FC2F70EC0BA0F621F731F841F48F42C
S11307E0879577956795B795F7959E3F08F0B0CFB5
S11307F09395880F08F09927EE0F9795879508959C
S11308000E94780408F481E008950E940C0468941E
S1130810B1110C94E70408950E94CC0488F09F570A
S113082098F0B92F9927B751B0F0E1F0660F771F10
S1130830881F991F1AF0BA95C9F714C0B13091F006
S11308400E94E604B1E008950C94E604672F782F23
S11308508827B85F39F0B93FCCF3869577956795CB
S1130860B395D9F73EF490958095709561957F4F37
S11308708F4F9F4F0895E89409C097FB3EF49095DD
S11308808095709561957F4F8F4F9F4F9923A9F065
S1130890F92F96E9BB279395F695879577956795F4
S11308A0B795F111F8CFFAF4BB0F11F460FF1BC038
S11308B06F5F7F4F8F4F9F4F16C0882311F096E9CB
S11308C011C0772321F09EE8872F762F05C0662379
S11308D071F096E8862F70E060E02AF09A95660F32
S11308E0771F881FDAF7880F9695879597F90895EB
S11308F0990F0008550FAA0BE0E8FEEF161617062D
S1130900E807F907C0F012161306E407F50798F094
S1130910621B730B840B950B39F40A2661F0232BAD
S1130920242B252B21F408950A2609F4A140A69529
S11309308FEF811D811D089597F99F6780E870E00E
S113094060E008959FEF80EC089500240A94161641
S1130950170618060906089500240A9412161306A9
S1130960140605060895092E0394000C11F4882337
S113097052F0BB0F40F4BF2B11F460FF04C06F5F53
S11309807F4F8F4F9F4F089557FD9058440F551F29
S113099059F05F3F71F04795880F97FB991F61F0FD
S11309A09F3F79F087950895121613061406551F74
S11309B0F2CF4695F1DF08C0161617061806991FE0
S11309C0F1CF86957105610508940895E894BB27D5
S11309D066277727CB0197F908950E9400050C94A8
S11309E0B3040E94A50438F00E94AC0420F09523BF
S11309F011F00C949C040C94A20411240C94E704AC
S1130A000E94C40470F3959FC1F3950F50E0551FE5
S1130A10629FF001729FBB27F00DB11D639FAA274F
S1130A20F00DB11DAA1F649F6627B00DA11D661F9E
S1130A30829F2227B00DA11D621F739FB00DA11DBF
S1130A40621F839FA00D611D221F749F3327A00D79
S1130A50611D231F849F600D211D822F762F6A2F15
S1130A6011249F5750409AF0F1F088234AF0EE0F7A
S1130A70FF1FBB1F661F771F881F91505040A9F7A7
S1130A809E3F510580F00C949C040C94E7045F3F56
S1130A90E4F3983ED4F3869577956795B795F795E3
S1130AA0E7959F5FC1F7FE2B880F911D969587955B
S1130AB097F90895AEE0B0E0E0E6F5E00C944B0859
S1130AC00D891E898F89988D26E02C831A830983CA
S1130AD097FF02C080E090E801979E838D83AE016A
S1130AE0455E5F4F698D7A8DCE0101960E94AC05FB
S1130AF04D815E8157FD0AC02F8138854217530707
S1130B000CF49A01F801E20FF31F10822E96E4E030
S1130B100C946708AEE0B0E0E0E9F5E00C944B0813
S1130B200D891E8986E08C831A8309838FEF9FE7E2
S1130B309E838D83AE01475E5F4F6F89788DCE01B2
S1130B4001960E94AC05EF81F885E00FF11F108239
S1130B502E96E4E00C946708ABE0B0E0E2EBF5E03D
S1130B600C943D086C017B018A01FC0117821682FA
S1130B70838181FFCCC1CE0101963C01F6019381B2
S1130B80F70193FD859193FF81917F01882309F4F7
S1130B90BAC1853239F493FD859193FF81917F0128
S1130BA0853229F4B60190E00E94A307E7CF912C87
S1130BB0212C312CFFE1F315D8F08B3279F038F485
S1130BC0803279F08332A1F4232D20611DC08D324F
S1130BD061F0803369F4232D216016C0832D826077
S1130BE0382EE32DE4603E2E2AC0F32DF8601DC09C
S1130BF037FC2DC020ED280F2A3040F08E32B9F496
S1130C0036FC81C1232D2064322E19C036FE06C065
S1130C108AE0989E200D1124922E11C0EAE02E9EA7
S1130C20200D1124222EF32DF0623F2E08C08C36A5
S1130C3021F4832D8068382E02C0883641F4F701F0
S1130C4093FD859193FF81917F018111B3CF982FFB
S1130C509F7D9554933028F40C5F1F4F9FE3998335
S1130C600DC0833631F0833771F0833509F059C0F4
S1130C7021C0F801808189830E5F1F4F88248394EB
S1130C80912C530113C02801F2E04F0E511CF801BE
S1130C90A080B18036FE03C0692D70E002C06FEF02
S1130CA07FEFC5010E9498074C018201F32DFF7765
S1130CB03F2E16C0280122E0420E511CF801A080EC
S1130CC0B18036FE03C0692D70E002C06FEF7FEF84
S1130CD0C5010E948D074C01F32DF0683F2E82015F
S1130CE033FC1BC0822D90E088169906B0F4B6013F
S1130CF080E290E00E94A3072A94F4CFF50137FC28
S1130D00859137FE81915F01B60190E00E94A307AF
S1130D1021102A9421E0821A91088114910471F718
S1130D20E8C0843611F0893641F5F80137FE07C072
S1130D3060817181828193810C5F1F4F08C0608143
S1130D407181072E000C880B990B0E5F1F4FF32D3A
S1130D50FF763F2E97FF09C0909580957095619519
S1130D607F4F8F4F9F4FF0683F2E2AE030E0A30162
S1130D700E94DF07882E861845C0853731F4232D5D
S1130D802F7EB22E2AE030E025C0932D997FB92E14
S1130D908F36C1F018F4883579F0B5C0803719F072
S1130DA0883721F0B0C0E92FE061BE2EB4FE0DC03B
S1130DB0FB2DF460BF2E09C034FE0AC0292F266023
S1130DC0B22E06C028E030E005C020E130E002C0C9
S1130DD020E132E0F801B7FE07C0608171818281B1
S1130DE093810C5F1F4F06C06081718180E090E0A9
S1130DF00E5F1F4FA3010E94DF07882E8618FB2D6C
S1130E00FF773F2E36FE0DC0232D2E7FA22E891490
S1130E1058F434FE0BC032FC09C0832D8E7EA82EFC
S1130E2005C0B82CA32C03C0B82C01C0B92CA4FE57
S1130E300FC0FE01E80DF11D8081803321F49A2D4D
S1130E40997EA92E09C0A2FE06C0B394B39404C02F
S1130E508A2D867809F0B394A3FC11C0A0FE06C0C5
S1130E60B21488F4280C922C9B180EC0B21460F4AF
S1130E70B60180E290E00E94A307B394F7CFB214C6
S1130E8018F42B1802C0982C212CA4FE10C0B60113
S1130E9080E390E00E94A307A2FE17C0A1FC03C058
S1130EA088E790E002C088E590E0B6010CC08A2D86
S1130EB0867859F0A1FE02C08BE201C080E2A7FC53
S1130EC08DE2B60190E00E94A307891438F4B601BC
S1130ED080E390E00E94A3079A94F7CF8A94F301E9
S1130EE0E80DF11D8081B60190E00E94A3078110F6
S1130EF0F5CF222009F442CEB60180E290E00E94B0
S1130F00A3072A94F6CFF6018681978102C08FEF5A
S1130F109FEF2B96E2E10C945908FC010590615077
S1130F2070400110D8F7809590958E0F9F1F0895FB
S1130F30FC016150704001900110D8F780959095A4
S1130F408E0F9F1F08950F931F93CF93DF93FB0181
S1130F50238121FD03C08FEF9FEF2CC022FF16C019
S1130F6046815781248135814217530744F4A08177
S1130F70B1819D012F5F3F4F318320838C93268164
S1130F8037812F5F3F4F3783268314C08B01EC01D9
S1130F90FB010084F185E02D0995892BE1F6D80148
S1130FA016968D919C911797019617969C938E9304
S1130FB01697CE01DF91CF911F910F910895FA01F9
S1130FC0AA27283051F1203181F1E8946F936E7F84
S1130FD06E5F7F4F8F4F9F4FAF4FB1E03ED0B4E075
S1130FE03CD0670F781F891F9A1FA11D680F791FB6
S1130FF08A1F911DA11D6A0F711D811D911DA11DC7
S113100020D009F468943F912AE0269F11243019D6
S1131010305D3193DEF6CF010895462F4770405D71
S11310204193B3E00FD0C9F7F6CF462F4F70405D20
S11310304A3318F0495D31FD4052419302D0A9F77B
S1131040EACFB4E0A6959795879577956795BA9575
S1131050C9F700976105710508959B01AC010A2E3B
S113106006945795479537952795BA95C9F7620F12
S1131070731F841F951FA01D08952F923F924F92B6
S11310805F926F927F928F929F92AF92BF92CF9214
S1131090DF92EF92FF920F931F93CF93DF93CDB71D
S11310A0DEB7CA1BDB0B0FB6F894DEBF0FBECDBF95
S11310B009942A88398848885F846E847D848C8466
S11310C09B84AA84B984C884DF80EE80FD800C816F
S11310D01B81AA81B981CE0FD11D0FB6F894DEBF52
S10F10E00FBECDBFED010895F894FFCFC2
S11310EC250054696D653D000000000046723D000A
S11310FC00000000000000000000000000005F0081
S113110C0000000700070000147F147F1400242A39
S113111C7F2A1200231308646200364955225000BA
S113112C000503000000001C224100000041221CA9
S113113C0000082A1C2A080008083E080800005071
S113114C3000000008080808080000606000000077
S113115C2010080402003E5149453E0000427F40E5
S113116C00004261514946002141454B310018149D
S113117C127F10002745454539003C4A4949300047
S113118C01710905030036494949360006494929C4
S113119C1E00003636000000005636000000000821
S11311AC14224100141414141400412214080000D5
S11311BC020151090600324979413E007E11111198
S11311CC7E007F49494936003E41414122007F411E
S11311DC41221C007F49494941007F090901010052
S11311EC3E41415132007F0808087F0000417F4195
S11311FC00002040413F01007F08142241007F4041
S113120C404040007F0204027F007F0408107F00EE
S113121C3E4141413E007F09090906003E415121EE
S113122C5E007F09192946004649494931000101EC
S113123C7F0101003F4040403F001F2040201F0021
S113124C7F2018207F0063140814630003047804BF
S113125C030061514945430000007F4141000204F1
S113126C0810200041417F00000004020102040028
S113127C40404040400000010204000020545454FB
S113128C78007F48444438003844444420003844AF
S113129C44487F00385454541800087E0901020055
S11312AC081454543C007F080404780000447D4026
S11312BC00002040443D0000007F10284400004101
S11312CC7F4000007C04180478007C080404780037
S11312DC3844444438007C141414080008141418BA
S11312EC7C007C0804040800485454542000043F37
S11312FC444020003C4040207C001C2040201C002A
S113130C3C4030403C004428102844000C505050C1
S113131C3C004464544C4400000836410000000076
S113132C7F00000000413608000008082A1C080051
S113133C081C2A080800000000000000005F0000E0
S113134C0007000700147F147F14242A7F2A122319
S113135C1308646236495522500005030000001C32
S113136C2241000041221C00082A1C2A0808083EBD
S113137C08080050300000080808080800606000E5
S113138C0020100804023E5149453E00427F4000B3
S113139C42615149462141454B311814127F1027A3
S11313AC454545393C4A49493001710905033649DB
S11313BC494936064949291E00363600000056367E
S11313CC00000008142241141414141441221408AB
S11313DC000201510906324979413E7E1111117EF8
S11313EC7F494949363E414141227F4141221C7F7C
S11313FC494949417F090901013E414151327F0864
S113140C08087F00417F41002040413F017F0814C0
S113141C22417F404040407F0204027F7F04081039
S113142C7F3E4141413E7F090909063E4151215EFF
S113143C7F09192946464949493101017F01013F78
S113144C4040403F1F2040201F7F2018207F631402
S113145C0814630304780403615149454300007F75
S113146C4141020408102041417F000004020102A2
S113147C044040404040000102040020545454787D
S113148C7F484444383844444420384444487F38E2
S113149C54545418087E090102081454543C7F080F
S11314AC04047800447D40002040443D00007F103B
S11314BC284400417F40007C041804787C08040410
S11314CC7838444444387C14141408081414187CD4
S11314DC7C080404084854545420043F4440203CE1
S11314EC4040207C1C2040201C3C4030403C442884
S11314FC1028440C5050503C4464544C440008365E
S113150C410000007F0000004136080008082A1C36
S113151C08081C2A080820000020200000203C2D6C
S113152C2D542D2D3E000020205F5F202020205FB5
S113153C5F20202000005F7C20207C5F5F7C2020CB
S113154C7C5F5F0000205F5F202020205F5F2020F5
S113155C00007C20207C5F5F7C20207C5F000020CE
S113156C20202020202020202020202000007C5F10
S113157C5F5F5F5F5F5F5F5F5F5F5F00005F5F5F29
S113158C5F5F5F5F5F5F5F5F5F5F0000205F5F5F58
S113159C5F5F5F5F5F5F5F5F5F00007C20202020E8
S11315AC202020202020202000005F5F5F5F5F5FF1
S11315BC5F5F5F5F5F000020202020202020202020
S11315CC202020000020205F20202020205F2020CD
S11315DC202000005F7C207C5F5F5F7C207C5F5F51
S11315EC5F0000205F20202020205F2020200000AE
S11315FC7C207C5F5F5F7C207C5F5F000020205F31
S113160C5F5F2020205F5F5F202000005F7C202034
S113161C207C5F7C2020207C5F0000205F5F5F20AB
S113162C20205F5F5F202000007C2020207C5F7CDA
S113163C2020207C5F00002564004B485A0025754F
S10F164C004475745F43793A006D53004C
S9030000FC
